:100000000C945D000C9485000C9485000C94850084
:100010000C9485000C9485000C9485000C9485004C
:100020000C9485000C9485000C9485000C9485003C
:100030000C9485000C9485000C9485000C9485002C
:100040000C9488050C9485000C9456050C9430058E
:100050000C9485000C9485000C9485000C9485000C
:100060000C94D2050C9485000000000800020100E9
:100070000003040700000000000000000000000072
:10008000250028002B0000000000240027002A0083
:10009000040404040404040402020202020203032E
:1000A0000303030301020408102040800102040836
:1000B0001020010204081020F10611241FBECFEF0A
:1000C000D8E0DEBFCDBF11E0A0E0B1E0E6E7F3E1AC
:1000D00002C005900D92A033B107D9F722E0A0E34A
:1000E000B1E001C01D92AC3BB207E1F710E0CDE5F5
:1000F000D0E004C02197FE010E94B309CC35D1079E
:10010000C9F70E942A070C94B9090C9400000895BD
:100110000895AF92BF92CF92DF92EF92FF920F932A
:100120001F93CF93DF936C017B018B01040F151F8D
:10013000EB015E01AE18BF08C017D10759F06991F5
:10014000D601ED91FC910190F081E02DC601099559
:10015000892B79F7C501DF91CF911F910F91FF9006
:10016000EF90DF90CF90BF90AF900895FC01538D3A
:10017000448D252F30E0842F90E0821B930B541781
:1001800010F0CF96089501970895FC01918D828D0E
:10019000981761F0A28DAE0FBF2FB11D5D968C91A7
:1001A000928D9F5F9F73928F90E008958FEF9FEFE6
:1001B0000895FC01918D828D981731F0828DE80FA2
:1001C000F11D858D90E008958FEF9FEF0895FC015C
:1001D000918D228D892F90E0805C9F4F821B910929
:1001E0008F739927089583E192E00E94E70021E050
:1001F000892B09F420E0822F089580E090E0892B7C
:1002000029F00E94F30081110C9400000895FC0174
:10021000A48DA80FB92FB11DA35ABF4F2C91848D67
:1002200090E001968F739927848FA689B7892C93C4
:10023000A089B1898C91837080648C93938D848D17
:10024000981306C00288F389E02D80818F7D80831A
:100250000895EF92FF920F931F93CF93DF93EC01DA
:1002600081E0888F9B8D8C8D98131AC0E889F9895D
:10027000808185FF15C09FB7F894EE89FF89608360
:10028000E889F98980818370806480839FBF81E0E1
:1002900090E0DF91CF911F910F91FF90EF90089523
:1002A000F62E0B8D10E00F5F1F4F0F731127E02EFE
:1002B0008C8D8E110CC00FB607FCFACFE889F98936
:1002C000808185FFF5CFCE010E940701F1CFEB8D34
:1002D000EC0FFD2FF11DE35AFF4FF0829FB7F8940A
:1002E0000B8FEA89FB8980818062CFCFCF93DF9328
:1002F000EC01888D8823B9F0AA89BB89E889F9893E
:100300008C9185FD03C0808186FD0DC00FB607FC72
:10031000F7CF8C9185FFF2CF808185FFEDCFCE01A5
:100320000E940701E9CFDF91CF91089590E0FC0191
:10033000E859FF4F2491FC01EC55FF4F3491FC012B
:10034000E057FF4FE491EE23C9F0222339F0233028
:1003500001F1A8F4213019F1223029F1F0E0EE0F7B
:10036000FF1FE458FF4FA591B4918FB7F894EC911B
:10037000611126C030953E233C938FBF08952730EE
:10038000A9F02830C9F0243049F7809180008F7D92
:1003900003C0809180008F7780938000DFCF84B589
:1003A0008F7784BDDBCF84B58F7DFBCF8091B0008C
:1003B0008F778093B000D2CF8091B0008F7DF9CF3E
:1003C0003E2BDACF3FB7F8948091E7019091E80196
:1003D000A091E901B091EA0126B5A89B05C02F3F85
:1003E00019F00196A11DB11D3FBFBA2FA92F982F5B
:1003F0008827BC01CD01620F711D811D911D42E056
:10040000660F771F881F991F4A95D1F708958F921D
:100410009F92AF92BF92CF92DF92EF92FF926B01C9
:100420007C010E94E2014B015C01C114D104E10492
:10043000F104B9F00E94E201681979098A099B095F
:10044000683E73408105910580F321E0C21AD1080E
:10045000E108F10888EE880E83E0981EA11CB11C0B
:10046000E4CFFF90EF90DF90CF90BF90AF909F9040
:100470008F90089520919801260F3327331F213242
:100480003105ECF42091BC01FC0190E080E02430C7
:1004900069F082E00895A09198012191AC0148583B
:1004A0005E4FA40FB52FB11D2C930196861798F3BC
:1004B00080919801680F6093980180E0089581E031
:1004C00008951092BC0181E08093BE011092BD019D
:1004D00061E082E10E94960161E083E10E94960161
:1004E000E9EBF0E080818E7F808380818D7F808347
:1004F00088E48093B80085E48093BC000895CF938E
:10050000DF9391E0909377018823B9F0C091B80010
:10051000D091BA008091BC008A7B8093BC0060E0DF
:1005200082E10E94960160E083E10E9496010E94B0
:100530006102D093BA00C093B800DF91CF910895C3
:100540000895E091F2018091F101E81730F4F0E0B4
:10055000EE5AFE4F808190E008958FEF9FEF08954F
:100560009091F2018091F1012FEF3FEF981748F43D
:10057000E92FF0E0EE5AFE4F208130E09F5F90932C
:10058000F201C90108958091F1019091F201891B56
:10059000990B0895CF92DF92EF92FF920F931F93E2
:1005A000CF93DF937C01CB018A012091510122235B
:1005B00089F0EB016B01C40ED51ECC15DD0569F089
:1005C0006991D701ED91FC910190F081E02DC70177
:1005D0000995F3CF642F0E943A02C801DF91CF91B1
:1005E0001F910F91FF90EF90DF90CF900895CF93E0
:1005F000DF931F92CDB7DEB769832091510122238B
:10060000F9F02091EF01203258F021E030E0FC01B8
:100610003383228390E080E00F90DF91CF910895A3
:100620008091F001E82FF0E0EF5CFE4F998190831C
:100630008F5F8093F0018093EF0181E090E0ECCF39
:1006400061E0CE0101960E943A02F7CF90E080E08F
:1006500008954F925F926F927F928F929F92AF9286
:10066000BF92EF92FF920F931F93CF93DF938B0173
:100670007A0180509F4FFC0160816295607F6C5FC2
:1006800081E08093510188E4809330011092F00161
:100690001092EF0180EB92E00E94F702C091EF010F
:1006A000C13208F091C00E94E2014B015C018091CF
:1006B000BC01811164C082E08093BC0181E0809321
:1006C000BE018FEF8093BB011092E001C093DF0168
:1006D000A1E3B1E0EFEBF1E080E0C813EEC01092CF
:1006E000E1018091E10180698093E1018091BD0188
:1006F000813009F0E6C01092BD010E94E2014B0179
:100700005C018091E1018093BB0080917301909125
:100710007401A0917501B0917601892B8A2B8B2BE6
:1007200099F00E94E2014090730150907401609032
:10073000750170907601681979098A099B09461636
:10074000570668067906E0F18091BC0083FDD9CF99
:1007500085EC8093BC000E94E2014B015C0180911A
:10076000BC01823009F4AFC08091BB018F3F61F1C1
:100770008091BB01803241F18091BB0125C0809105
:10078000730190917401A0917501B0917601892B4C
:100790008A2B8B2B09F48BCF0E94E20140907301CE
:1007A0005090740160907501709076016819790914
:1007B0008A099B09461657066806790608F077CF1E
:1007C000809172010E947F021092F0011092EF015D
:1007D0001092510165E070E080E090E00E94070215
:1007E0000E94E2014B015C018091BC0181118DC02E
:1007F00081E08093BC018093BE019FEF9093BB0189
:100800001092E0018093DF018093E1018091E1018A
:1008100080698093E1018091BD01813009F0C2C0FF
:100820001092BD010E94E2014B015C018091E10147
:100830008093BB008091730190917401A091750128
:10084000B0917601892B8A2B8B2BA1F00E94E201BB
:100850004090730150907401609075017090760122
:10086000681979098A099B094616570668067906A8
:1008700008F46CC08091BC0083FDD8CF85EC8093D8
:10088000BC000E94E2014B015C018091BC018130FF
:1008900009F48AC08091E001823008F0A7C08091FD
:1008A000E001AFEBB1E0E2E5F1E090E0981709F488
:1008B00052C02D9121939F5FF9CF9D9191938F5FAE
:1008C0000CCF85EE46CF8091730190917401A09179
:1008D0007501B0917601892B8A2B8B2B09F43FCFC0
:1008E0000E94E20140907301509074016090750184
:1008F00070907601681979098A099B09461657068E
:100900006806790608F02BCF5BCF80917301909138
:100910007401A0917501B0917601892B8A2B8B2BE4
:1009200009F462CF0E94E20140907301509074017B
:100930006090750170907601681979098A099B09A0
:10094000461657066806790608F04ECF8091720168
:100950000E947F0280E01092F2018093F10180EB0F
:1009600092E00E94B002D82FF0E0CF2F80EB92E00F
:100970000E94B002EE0CFF1C0E0D1F1D8C0F9D1F60
:10098000F80191838083DF91CF911F910F91FF90A8
:10099000EF90BF90AF909F908F907F906F905F90FF
:1009A0004F90089585EE6BCF809173019091740103
:1009B000A0917501B0917601892B8A2B8B2B09F4BC
:1009C00064CF0E94E20140907301509074016090E6
:1009D000750170907601681979098A099B09461694
:1009E00057066806790608F050CFB0CF82E059CF9D
:1009F00085ED8093BC008091730190917401A0916A
:100A00007501B09176010796A11DB11D23E0B69541
:100A1000A795979587952A95D1F72091BC0024FD3D
:100A200003C01092BC01089540917301509174016C
:100A30006091750170917601452B462B472B69F328
:100A40000097A105B10541F025E32A95F1F70000D3
:100A50000197A109B109E1CF809172010C947F0245
:100A60001F920F920FB60F9211242F933F934F9323
:100A70005F936F937F938F939F93AF93BF93EF9306
:100A8000FF9383E192E00E940701FF91EF91BF91F4
:100A9000AF919F918F917F916F915F914F913F9116
:100AA0002F910F900FBE0F901F9018951F920F92CD
:100AB0000FB60F9211242F938F939F93EF93FF9371
:100AC000E0912302F09124028081E0912902F091CB
:100AD0002A0282FD1BC0908180912C028F5F8F7350
:100AE00020912D02821741F0E0912C02F0E0ED5EA2
:100AF000FD4F958F80932C02FF91EF919F918F91E5
:100B00002F910F900FBE0F901F9018958081F4CFFA
:100B10001F920F920FB60F9211242F933F938F9332
:100B20009F93AF93BF938091E3019091E401A091D3
:100B3000E501B091E6013091E20123E0230F2D376A
:100B400058F50196A11DB11D2093E2018093E301A8
:100B50009093E401A093E501B093E6018091E70151
:100B60009091E801A091E901B091EA010196A11DDF
:100B7000B11D8093E7019093E801A093E901B09340
:100B8000EA01BF91AF919F918F913F912F910F906B
:100B90000FBE0F901F90189526E8230F0296A11DF7
:100BA000B11DD2CF1F920F920FB60F9211242F9327
:100BB0003F934F935F936F937F938F939F93AF93E5
:100BC000BF93EF93FF938091B900887F803609F43B
:100BD0004AC0F0F5883209F4A7C018F5803109F44D
:100BE0009BC0B8F4882309F4F9C0883009F494C094
:100BF000FF91EF91BF91AF919F918F917F916F91F5
:100C00005F914F913F912F910F900FBE0F901F90CA
:100C10001895883109F488C0803251F78093BB0160
:100C200014C0803409F49DC040F48033B9F3883394
:100C3000F9F68093BB0185ECB0C0803509F485C01E
:100C4000883509F496C0883499F60E94F804D0CF0C
:100C5000883909F48CC038F5883729F050F4883683
:100C600011F0803729F683E08093BC011092BA011D
:100C700057C0883809F47BC0803919F0803809F0F2
:100C8000B7CF8091BA01803208F071C0E091BA010B
:100C900081E08E0F8093BA018091BB00F0E0E656B0
:100CA000FE4F80833DC0803B39F0E0F4803A09F488
:100CB00079C0883A09F09CCF84E08093BC011092FF
:100CC000990110929801E091ED01F091EE010995E2
:100CD0008091980181110FC081E08093980110925A
:100CE000780109C0803C09F4A6CF883C09F4A3CF61
:100CF000883B09F07DCFE091990181E08E0F8093D0
:100D00009901F0E0E858FE4F80818093BB009091FC
:100D100099018091980129C08091E1018093BB00E5
:100D200085EC8093BC0064CF9091E0018091DF015D
:100D3000981758F5E091E00181E08E0F8093E00173
:100D4000F0E0E154FE4F8081E9CFE091E00181E0E5
:100D50008E0F8093E0018091BB00F0E0E154FE4FE4
:100D600080839091E0018091DF019817C8F285E8B7
:100D7000D8CFE091E00181E08E0F8093E001809177
:100D8000BB00F0E0E154FE4F80838091BE018111F1
:100D90005CCF81E08093BD0184EA8093BC00109217
:100DA000BC0126CF85EC8093BC001092BC018091E1
:100DB000BA01803230F4E091BA01F0E0E656FE4F1D
:100DC00010826091BA0170E0E091EB01F091EC01CA
:100DD0008AE991E009951092BA010ACF1092BB01FD
:100DE00034CFE3E1F2E01382128288EE93E0A0E0D8
:100DF000B0E084839583A683B7832CE031E0318310
:100E0000208325EC30E03587248724EC30E03787D9
:100E1000268720EC30E0318B208B21EC30E0338BC7
:100E2000228B22EC30E0358B248B26EC30E0378BA4
:100E3000268B118E128E138E148EE0EBF2E013824D
:100E4000128284839583A683B7838EE191E0918398
:100E500080830895CF93DF93CDB7DEB7E2970FB6C7
:100E6000F894DEBF0FBECDBF789484B5826084BD98
:100E700084B5816084BD85B5826085BD85B581609E
:100E800085BD80916E00816080936E00109281001C
:100E900080918100826080938100809181008160D7
:100EA0008093810080918000816080938000809198
:100EB000B10084608093B1008091B0008160809324
:100EC000B00080917A00846080937A0080917A00EB
:100ED000826080937A0080917A00816080937A00AA
:100EE00080917A00806880937A001092C100E0912E
:100EF0002302F091240282E08083E0911F02F091AE
:100F000020021082E0912102F091220280E1808390
:100F100010922B02E0912702F091280286E0808354
:100F2000E0912502F0912602808180618083E0912A
:100F30002502F0912602808188608083E09125025D
:100F4000F0912602808180688083E0912502F091F3
:100F5000260280818F7D80831092F2011092F10130
:100F60001092F0011092EF010E94610287E890E078
:100F70009093EE018093ED0188E890E09093EC016E
:100F80008093EB0130E020E0F901EC55FF4F4491F4
:100F9000F901E057FF4F8491882399F090E0880F82
:100FA000991FFC01EA57FF4FA591B491FC01E45849
:100FB000FF4F859194918FB7F894EC91E42BEC93CB
:100FC0008FBF2F5F3F4F2C303105F1F660E082E09C
:100FD0000E94960160E083E00E94960161E080E05B
:100FE0000E94960161E081E00E94960161E084E048
:100FF0000E94960161E085E00E94960161E086E032
:101000000E94960161E087E00E94960161E088E01D
:101010000E94960161E089E00E94960161E08AE009
:101020000E94960161E08BE00E949601CE01059638
:101030009BA78AA75AE0452E512C612C712CFE01EA
:10104000BA96FDA7ECA783E192E00E94E70018168C
:1010500019060CF059C183E192E00E94C50080336B
:1010600009F4F3C0813479F784E090E09A838983AE
:10107000E5E0F0E0FC83EB8386E090E09E838D83E7
:10108000E7E0F0E0F887EF8388E090E09A878987CF
:10109000E9E0F0E0FC87EB878AE090E09E878D87AF
:1010A0008BE090E0988B8F8782E090E09FA38EA3E7
:1010B00083E090E099A788A71BA21AA281E090E0A4
:1010C0009DA38CA38E010A5D1F4F5E0192E2A90EC3
:1010D000B11C23EF222E21E0322E6101F801F081B4
:1010E000F8AB0E5F1F4F61E08F2F0E949601F50154
:1010F000F081F9AB82E0A80EB11C60E08F2F0E9456
:1011000096016AE070E080E090E00E940702FE0134
:1011100031964F0180E091E09FA78EA7F12CE12C42
:10112000F401F081FAAB82E0880E911C60E08F2F11
:101130000E94960162E370E080E090E00E94070266
:10114000EEA5FFA58191FFA7EEA7A701B60190E04C
:101150000E94290361E070E080E090E00E940702B5
:1011600061E08AA90E949601FFEFEF1AFF0A88E06A
:10117000E816F104A9F660E088A90E94960161E0F2
:1011800089A90E94960190E1C90ED11CECA5FDA58C
:101190000E171F0709F0A2CF93E1C92E92E0D92EB6
:1011A000F12CE12CF701EE0FFF1FE20DF31D808003
:1011B0009180092C000CAA08BB08B7FE8FC06DE215
:1011C00083E192E00E94290122273327A9012819EF
:1011D00039094A095B0919A28E010F5D1F4FCA0127
:1011E000B901A30192010E949109605DF801629327
:1011F0008F01211531054105510589F701151105AB
:1012000061F001900020E9F73197AF01401B510BCD
:10121000B80183E192E00E94890042E050E06CE274
:1012200071E083E192E00E948900FFEFEF1AFF0A6C
:1012300088E0E816F10409F0B5CF90E1290E311CE1
:10124000C214D30409F0ACCFFECE1A82198281E019
:1012500090E09C838B838E010F5F1F4F43EFC42E62
:1012600041E0D42EF80190800E5F1F4F60E0892D81
:101270000E9496016AE070E080E090E00E94070220
:1012800030E0A32E31E0B32EF12CE12C62E370E0CC
:1012900080E090E00E940702F50181915F01A701C3
:1012A000B60190E00E94290361E070E080E090E0E8
:1012B0000E940702FFEFEF1AFF0A88E0E816F10428
:1012C00029F761E0892D0E94960190E1C90ED11C99
:1012D000EAA5FBA5E017F10729F6C6CEA501940102
:1012E00019A28E010F5D1F4FCA01B901A30192011E
:1012F0000E949109605DF80162938F01211531050B
:101300004105510589F77ACF80E090E0892B09F4F7
:101310009ACE0E94F300882309F495CE0E94000023
:1013200092CEA1E21A2EAA1BBB1BFD010DC0AA1F63
:10133000BB1FEE1FFF1FA217B307E407F50720F03E
:10134000A21BB30BE40BF50B661F771F881F991FB9
:101350001A9469F760957095809590959B01AC0102
:10136000BD01CF010895EE0FFF1F0590F491E02D10
:061370000994F894FFCF80
:10137600080C090D0A0E0B0F000000002901890058
:10138600B6007601E700C500D90000000000F702AC
:10139600CA022603A002C302B002A1020D0A00007F
:00000001FF
