:100000000C9458000C9480000C9480000C94800098
:100010000C9480000C9480000C9480000C94800060
:100020000C9480000C9480000C9480000C94800050
:100030000C9480000C9480000C9480000C94800040
:100040000C9489050C9480000C9457050C94310590
:100050000C9480000C9480000C9480000C94800020
:100060000C94D3050C9480000000000025002800AB
:100070002B00040404040404040402020202020229
:10008000030303030303010204081020408001025C
:1000900004081020010204081020000000080002DB
:1000A0000100000304070000000000000000F20649
:1000B00011241FBECFEFD8E0DEBFCDBF23E0A8E5FF
:1000C000B1E001C01D92A938B207E1F711E0A0E04C
:1000D000B1E0ECE2F9E102C005900D92A835B1075C
:1000E000D9F710E0C8E5D0E004C02197FE010E94D6
:1000F0009C0AC735D107C9F70E942B070C94940CB2
:100100000C94000008950895AF92BF92CF92DF92B1
:10011000EF92FF920F931F93CF93DF936C017B01BC
:100120008B01040F151FEB015E01AE18BF08C0174D
:10013000D10759F06991D601ED91FC910190F081C0
:10014000E02DC6010995892B79F7C501DF91CF9183
:100150001F910F91FF90EF90DF90CF90BF90AF90E5
:100160000895FC01538D448D252F30E0842F90E0BD
:10017000821B930B541710F0CF96089501970895A2
:10018000FC01918D828D981761F0A28DAE0FBF2F6B
:10019000B11D5D968C91928D9F5F9F73928F90E0C1
:1001A00008958FEF9FEF0895FC01918D828D981730
:1001B00031F0828DE80FF11D858D90E008958FEF6D
:1001C0009FEF0895FC01918D228D892F90E0805C36
:1001D0009F4F821B91098F73992708958CED92E0B0
:1001E0000E94E20021E0892B09F420E0822F08958B
:1001F00080E090E0892B29F00E94EE0081110C94A0
:1002000000000895FC01A48DA80FB92FB11DA35AB9
:10021000BF4F2C91848D90E001968F739927848F26
:10022000A689B7892C93A089B1898C918370806449
:100230008C93938D848D981306C00288F389E02DEA
:1002400080818F7D80830895EF92FF920F931F939B
:10025000CF93DF93EC0181E0888F9B8D8C8D981379
:100260001AC0E889F989808185FF15C09FB7F89485
:10027000EE89FF896083E889F989808183708064D1
:1002800080839FBF81E090E0DF91CF911F910F911C
:10029000FF90EF900895F62E0B8D10E00F5F1F4F2B
:1002A0000F731127E02E8C8D8E110CC00FB607FC3A
:1002B000FACFE889F989808185FFF5CFCE010E94C8
:1002C0000201F1CFEB8DEC0FFD2FF11DE35AFF4F33
:1002D000F0829FB7F8940B8FEA89FB898081806256
:1002E000CFCFCF93DF93EC01888D8823B9F0AA8913
:1002F000BB89E889F9898C9185FD03C0808186FDE1
:100300000DC00FB607FCF7CF8C9185FFF2CF80812F
:1003100085FFEDCFCE010E940201E9CFDF91CF91A1
:10032000089590E0FC01E656FF4F2491FC01EA5746
:10033000FF4F3491FC01EE58FF4FE491EE23C9F0DA
:10034000222339F0233001F1A8F4213019F12230B1
:1003500029F1F0E0EE0FFF1FE859FF4FA591B4918E
:100360008FB7F894EC91611126C030953E233C93F1
:100370008FBF08952730A9F02830C9F0243049F7FD
:10038000809180008F7D03C0809180008F77809363
:100390008000DFCF84B58F7784BDDBCF84B58F7DC0
:1003A000FBCF8091B0008F778093B000D2CF809147
:1003B000B0008F7DF9CF3E2BDACF3FB7F894809114
:1003C000A1019091A201A091A301B091A40126B531
:1003D000A89B05C02F3F19F00196A11DB11D3FBF7D
:1003E000BA2FA92F982F8827BC01CD01620F711D4C
:1003F000811D911D42E0660F771F881F991F4A9546
:10040000D1F708958F929F92AF92BF92CF92DF92D1
:10041000EF92FF926B017C010E94DD014B015C01B8
:10042000C114D104E104F104B9F00E94DD0168199E
:1004300079098A099B09683E73408105910580F31B
:1004400021E0C21AD108E108F10888EE880E83E0A5
:10045000981EA11CB11CE4CFFF90EF90DF90CF90CD
:10046000BF90AF909F908F90089520917901260FB3
:100470003327331F21323105ECF42091B202FC0105
:1004800090E080E0243069F082E00895A091790145
:100490002191AC01475A5E4FA40FB52FB11D2C938B
:1004A0000196861798F380917901680F609379011E
:1004B00080E0089581E008951092B20281E0809377
:1004C000B10210928C0261E082E10E94910161E030
:1004D00083E10E949101E9EBF0E080818E7F8083CF
:1004E00080818D7F808388E48093B80085E4809349
:1004F000BC000895CF93DF9391E090935801882337
:10050000B9F0C091B800D091BA008091BC008A7B4C
:100510008093BC0060E082E10E94910160E083E191
:100520000E9491010E945C02D093BA00C093B8006F
:10053000DF91CF9108958F929F92AF92BF92CF9209
:10054000DF92EF92FF920F931F93CF93DF93D0919F
:10055000DB02D13208F0D7C0182FC091DA020E9416
:10056000DD016B017C018091B20281116BC082E0E0
:100570008093B2021093B1028FEF8093B002109279
:10058000AF02D093AE02AAEBB2E0EEE8F2E080E078
:10059000D81391C010928D0280918D02CC0FC82B80
:1005A000C0938D0280918C02813009F088C0109236
:1005B0008C020E94DD016B017C0180918D02809391
:1005C000BB008091B4029091B502A091B602B091A7
:1005D000B702892B8A2B8B2BA1F00E94DD010091A1
:1005E000B4021091B5022091B6023091B7026C1995
:1005F0007D098E099F09061717072807390708F490
:1006000042C08091BC0083FDD8CF85EC8093BC00B4
:100610000E94DD016B017C018091B202823009F4FD
:1006200050C08091B0028F3F09F46FC08091B0023A
:10063000803209F46CC08091B002803309F469C043
:1006400084E026C08091B4029091B502A091B602D8
:10065000B091B702892B8A2B8B2B09F484CF0E948F
:10066000DD018090B4029090B502A090B602B090E7
:10067000B7026C197D098E099F0986169706A80690
:10068000B90608F070CF8091B3020E947A0285E02B
:100690001092B9021092DB021092B802DF91CF9152
:1006A0001F910F91FF90EF90DF90CF90BF90AF9090
:1006B0009F908F9008959D9191938F5F69CF85EE64
:1006C000A5CF8091B4029091B502A091B602B091ED
:1006D000B702892B8A2B8B2B09F49ECF0E94DD0158
:1006E0000091B4021091B5022091B6023091B70288
:1006F0006C197D098E099F09061717072807390706
:1007000008F08ACFC0CF81E0C3CF80E0C1CF82E0C4
:10071000BFCF83E0BDCF0895E091AA018091A901E8
:10072000E81730F4F0E0E555FE4F808190E0089541
:100730008FEF9FEF08959091AA018091A9012FEF6B
:100740003FEF981748F4E92FF0E0E555FE4F208180
:1007500030E09F5F9093AA01C90108958091A9019B
:100760009091AA01891B990B0895CF92DF92EF9285
:10077000FF920F931F93CF93DF937C01CB018A01EC
:100780002091B802222389F0EB016B01C40ED51E23
:10079000CC15DD0569F06991D701ED91FC910190CF
:1007A000F081E02DC7010995F3CF642F0E94350237
:1007B000C801DF91CF911F910F91FF90EF90DF90D3
:1007C000CF900895CF93DF931F92CDB7DEB76983A3
:1007D0002091B8022223F9F02091DB02203258F058
:1007E00021E030E0FC013383228390E080E00F9031
:1007F000DF91CF9108958091B902E82FF0E0E6549F
:10080000FD4F998190838F5F8093B9028093DB02C3
:1008100081E090E0ECCF61E0CE0101960E943502CC
:10082000F7CF90E080E00895CF93DF93D42FC22FCD
:1008300091E09093B8028093DA021092B90210927C
:10084000DB0289E793E00E94E2036D2F89E793E0E2
:100850000E94E2036C2F89E793E00E94E20381E0AB
:10086000DF91CF910C949B02FC0101900020E9F7ED
:100870003197AF01481B590BBC018CED92E00C94F1
:1008800084008F929F92AF92BF920F931F93CF934A
:10089000DF93CDB7DEB7A1970FB6F894DEBF0FBEDA
:1008A000CDBF19A2423008F44AE08E010F5D1F4F00
:1008B000842E912CB12CA12CA50194010E947A0ABE
:1008C000E62FB901CA01EA30F4F4E05DD801EE93F5
:1008D0008D01232B242B252B79F790E080E01097B6
:1008E00019F0CD010E943404A1960FB6F894DEBF32
:1008F0000FBECDBFDF91CF911F910F91BF90AF90F1
:100900009F908F900895E95CE1CFCF93DF930E9491
:100910003404EC018AE291E00E9434048C0F9D1FA4
:10092000DF91CF910895CF93DF93EC018881998176
:10093000009711F00E943E0B198218821D821C82C2
:100940001B821A82DF91CF9108950F931F93CF934B
:10095000DF93EC0188819981009759F02A813B81CE
:100960002617370730F081E0DF91CF911F910F916B
:1009700008958B016F5F7F4F0E94C70B009759F05E
:10098000998388831B830A832C813D81232B59F70C
:10099000FC011082E8CF80E0E7CFEF92FF920F9347
:1009A0001F93CF93DF936115710541F480E0DF91D0
:1009B000CF911F910F91FF90EF9008954115510530
:1009C000B1F07B01EC010C811D81040F151FB801F2
:1009D0000E94A504882351F3288139818C819D814F
:1009E000B701820F931F0E948D0C1D830C8381E041
:1009F000DECF85ED8093BC008091B4029091B5026A
:100A0000A091B602B091B7020796A11DB11D23E0D7
:100A1000B695A795979587952A95D1F72091BC0013
:100A200024FD03C01092B20208954091B402509187
:100A3000B5026091B6027091B702452B462B472B49
:100A400069F30097A105B10541F025E32A95F1F777
:100A500000000197A109B109E1CF8091B3020C9484
:100A60007A021F920F920FB60F9211242F933F9389
:100A70004F935F936F937F938F939F93AF93BF93A6
:100A8000EF93FF938CED92E00E940201FF91EF91B2
:100A9000BF91AF919F918F917F916F915F914F9196
:100AA0003F912F910F900FBE0F901F9018951F929E
:100AB0000F920FB60F9211242F938F939F93EF9362
:100AC000FF93E091EC02F091ED028081E091F2025F
:100AD000F091F30282FD1BC090818091F5028F5F3F
:100AE0008F732091F602821741F0E091F502F0E059
:100AF000E452FD4F958F8093F502FF91EF919F9106
:100B00008F912F910F900FBE0F901F90189580819D
:100B1000F4CF1F920F920FB60F9211242F933F9391
:100B20008F939F93AF93BF9380919D0190919E016E
:100B3000A0919F01B091A00130919C0123E0230F6F
:100B40002D3758F50196A11DB11D20939C0180936E
:100B50009D0190939E01A0939F01B093A00180916D
:100B6000A1019091A201A091A301B091A4010196CD
:100B7000A11DB11D8093A1019093A201A093A30197
:100B8000B093A401BF91AF919F918F913F912F910D
:100B90000F900FBE0F901F90189526E8230F029616
:100BA000A11DB11DD2CF1F920F920FB60F9211242B
:100BB0002F933F934F935F936F937F938F939F9365
:100BC000AF93BF93EF93FF938091B900887F8036F6
:100BD00009F44AC0F0F5883209F4A7C018F580314D
:100BE00009F49BC0B8F4882309F4F9C0883009F4EB
:100BF00094C0FF91EF91BF91AF919F918F917F91A1
:100C00006F915F914F913F912F910F900FBE0F9079
:100C10001F901895883109F488C0803251F780936D
:100C2000B00214C0803409F49DC040F48033B9F39D
:100C30008833F9F68093B00285ECB0C0803509F4B2
:100C400085C0883509F496C0883499F60E94F90465
:100C5000D0CF883909F48CC038F5883729F050F4A2
:100C6000883611F0803729F683E08093B202109223
:100C70009B0157C0883809F47BC0803919F080384F
:100C800009F0B7CF80919B01803208F071C0E091EC
:100C90009B0181E08E0F80939B018091BB00F0E06F
:100CA000E558FE4F80833DC0803B39F0E0F4803A48
:100CB00009F479C0883A09F09CCF84E08093B202AD
:100CC00010927A0110927901E091A701F091A801A8
:100CD00009958091790181110FC081E0809379019C
:100CE0001092590109C0803C09F4A6CF883C09F450
:100CF000A3CF883B09F07DCFE0917A0181E08E0F90
:100D000080937A01F0E0E75AFE4F80818093BB0028
:100D100090917A018091790129C080918D02809310
:100D2000BB0085EC8093BC0064CF9091AF028091B2
:100D3000AE02981758F5E091AF0281E08E0F8093D4
:100D4000AF02F0E0E257FD4F8081E9CFE091AF02C2
:100D500081E08E0F8093AF028091BB00F0E0E257FC
:100D6000FD4F80839091AF028091AE029817C8F238
:100D700085E8D8CFE091AF0281E08E0F8093AF027B
:100D80008091BB00F0E0E257FD4F80838091B1027B
:100D900081115CCF81E080938C0284EA8093BC0057
:100DA0001092B20226CF85EC8093BC001092B20262
:100DB00080919B01803230F4E0919B01F0E0E55896
:100DC000FE4F108260919B0170E0E091A501F091CF
:100DD000A6018BE791E0099510929B010ACF109232
:100DE000B00234CFECEDF2E01382128288EE93E091
:100DF000A0E0B0E084839583A683B7832AE031E046
:100E00003183208325EC30E03587248724EC30E0E3
:100E10003787268720EC30E0318B208B21EC30E0C7
:100E2000338B228B22EC30E0358B248B26EC30E0A8
:100E3000378B268B118E128E138E148EE9E7F3E01A
:100E40001382128284839583A683B7838CE191E019
:100E5000918380830895CF93DF93CDB7DEB76E97EC
:100E60000FB6F894DEBF0FBECDBF789484B5826014
:100E700084BD84B5816084BD85B5826085BD85B53E
:100E8000816085BD80916E00816080936E001092BC
:100E90008100809181008260809381008091810037
:100EA00081608093810080918000816080938000C8
:100EB0008091B10084608093B1008091B000816026
:100EC0008093B00080917A00846080937A00809152
:100ED0007A00826080937A0080917A0081608093AA
:100EE0007A0080917A00806880937A001092C10025
:100EF000E091EC02F091ED0282E08083E091E80263
:100F0000F091E9021082E091EA02F091EB0280E1B7
:100F100080831092F402E091F002F091F10286E0F9
:100F20008083E091EE02F091EF0280818061808306
:100F3000E091EE02F091EF02808188608083E09181
:100F4000EE02F091EF02808180688083E091EE02F2
:100F5000F091EF0280818F7D80831092AA01109220
:100F6000A9011092B9021092DB020E945C0282E891
:100F700090E09093A8018093A70183E890E090937C
:100F8000A6018093A50164EF71E080E090E00E94EB
:100F9000020220E040E062E080E20E94140420EFC0
:100FA00040E066E080E20E9414048DE291E00E943D
:100FB00085042FEF4FEF62E081E20E9414042FEFCF
:100FC00040E066E081E20E94140486E391E00E9422
:100FD00085042FEF4FEF62E083E20E94140420EFBC
:100FE00040E066E083E20E9414048FE391E00E94F7
:100FF000850481E080938B0262E370E080E090E002
:101000000E9402020FEF1FEFCE0101967C0130E03B
:10101000432E30E0532E3324339428E4222E809143
:101020008B02882309F4B3C1EBECF1E01183008358
:101030001383028315830483178306831187008734
:10104000138702871587048717870687709692E0B3
:10105000EB38F90759F794E1892E912C27EF4FEFE0
:1010600062E083E20E9414046AE070E080E090E0B5
:101070000E94020228E040E062E080E20E94140444
:101080002FEF4DEF62E081E20E94140464E670E00D
:1010900080E090E00E9402023092B8022092DA02D0
:1010A0001092B9021092DB026CE089E793E00E9493
:1010B000E20381E00E949B0265E070E080E090E046
:1010C0000E9402020E94DD015B016C018091B2026C
:1010D000811163C03092B2023092B1028FEF8093DF
:1010E000B0021092AF023092AE0230928D02809127
:1010F0008D02806980938D0280918C02813009F08D
:1011000052C110928C020E94DD015B016C01809142
:101110008D028093BB008091B4029091B502A091A2
:10112000B602B091B702892B8A2B8B2BA1F00E94BB
:10113000DD012091B4023091B5024091B602509188
:10114000B7026A197B098C099D09261737074807DA
:10115000590708F443C08091BC0083FDD8CF85ECCB
:101160008093BC000E94DD015B016C018091B202A2
:10117000813009F41CC18091AF02823008F039C17E
:101180008091AF02EEE8F2E0ABEAB1E090E09817B0
:1011900051F121912D939F5FFACF8091B4029091EC
:1011A000B502A091B602B091B702892B8A2B8B2B86
:1011B00009F48CCF0E94DD012091B4023091B50278
:1011C0004091B6025091B7026A197B098C099D09BA
:1011D000261737074807590708F078CF8091B302E0
:1011E0000E947A0280E01092AA018093A90189E707
:1011F00093E00E949B035C0189E793E00E949B03BC
:101200006C017A2C66246C0C7D1CB50190E080E0AA
:1012100042E00E944104B60190E080E042E00E947A
:1012200041048AE291E00E94340470927E0260924E
:101230007D021A8E198E1C8E1B8E1E8E1D8E4AE00C
:10124000B7018BE090E00E940E0AF70101900020A8
:10125000E9F731976F01CE18DF08B601CE01499644
:101260000E94A5048111C7C0CE0149960E94930433
:101270001C8A1B8A1E8A1D8A188E1F8A64E070E0F1
:10128000CE0143960E94A5048111BDC0CE014396B4
:101290000E9493044D8D5E8D698D7A8DCE014396AB
:1012A0000E94CD04811104C0CE0143960E94930494
:1012B00042E050E06DE471E0CE0143960E94CD041F
:1012C000811104C0CE0143960E9493044AE0B70105
:1012D00081E090E00E940E0AF70101900020E9F7FA
:1012E0003197AF014E195F09B701CE0143960E94B5
:1012F000CD04811104C0CE0143960E94930446E0C0
:1013000050E060E571E0CE0143960E94CD0481116A
:1013100004C0CE0143960E9493044F89588D6B8977
:101320007C898CED92E00E9484008B899C890097D7
:1013300011F00E943E0B898D9A8D009711F00E944A
:101340003E0B60917D0270917E0290E080E04AE069
:101350000E9441048AE291E00E9434042FEF4FEF93
:1013600062E083E20E94140420E040E062E080E258
:101370000E9414042FEF4FEF62E081E20E941404F8
:1013800081E0881A910809F069CE10928B0241140D
:10139000510409F444CE0E94EE00882309F43DCEA6
:1013A0000E94000038CE95EE9093BC00DBCE809179
:1013B000B4029091B502A091B602B091B702892B08
:1013C0008A2B8B2B09F4D2CE0E94DD012091B4022E
:1013D0003091B5024091B6025091B7026A197B096B
:1013E0008C099D09261737074807590708F0BECE14
:1013F000F5CE82E0C7CEDE8ECD8EB701898D9A8D77
:101400000E948D0C35CF84E090E0988F8F8B68E43C
:1014100071E08B899C890E948D0C3CCFBB274A30A0
:1014200031F4992322F4BDE2909581959F4F0C945D
:101430001A0ABB27FB015527AA27880F991FAA1F45
:10144000A41710F0A41B83955051B9F7A05DAA33DF
:1014500008F0A95DA193009779F7B111B1931192AA
:10146000CB010C94330ADC01FC01672F71917723C7
:10147000E1F7329704C07C916D9370836291AE174F
:10148000BF07C8F308952F923F924F925F926F92D9
:101490007F928F929F92AF92BF92CF92DF92EF9204
:1014A000FF920F931F93CF93DF93CDB7DEB7CA1B85
:1014B000DB0B0FB6F894DEBF0FBECDBF09942A88B0
:1014C000398848885F846E847D848C849B84AA8458
:1014D000B984C884DF80EE80FD800C811B81AA81E5
:1014E000B981CE0FD11D0FB6F894DEBF0FBECDBFB0
:1014F000ED010895A1E21A2EAA1BBB1BFD010DC030
:10150000AA1FBB1FEE1FFF1FA217B307E407F507B3
:1015100020F0A21BB30BE40BF50B661F771F881F8F
:10152000991F1A9469F760957095809590959B0125
:10153000AC01BD01CF010895EE0FFF1F0590F4919E
:10154000E02D09940F931F93CF93DF938230910581
:1015500010F482E090E0E0918703F091880330E09E
:1015600020E0B0E0A0E0309799F42115310509F4AE
:101570004AC0281B390B24303105D8F58A819B815C
:101580006115710589F1FB0193838283FE0111C00E
:10159000408151810281138148175907E0F04817B3
:1015A000590799F4109761F012960C9312971396BD
:1015B0001C933296CF01DF91CF911F910F91089527
:1015C0000093870310938803F4CF2115310551F060
:1015D0004217530738F0A901DB019A01BD01DF0171
:1015E000F801C1CFEF01F9CF90938803809387036F
:1015F000CDCFFE01E20FF31F819391932250310969
:1016000039832883D7CF2091850330918603232BFC
:1016100041F420910201309103013093860320931D
:10162000850320910001309101012115310541F41C
:101630002DB73EB74091040150910501241B350B95
:10164000E0918503F0918603E217F307A0F42E1BC7
:101650003F0B2817390778F0AC014E5F5F4F241716
:10166000350748F04E0F5F1F509386034093850364
:10167000819391939FCFF0E0E0E09CCFCF93DF93F5
:101680000097E9F0FC01329713821282A091870340
:10169000B0918803ED0130E020E01097A1F42081A3
:1016A0003181820F931F2091850330918603281783
:1016B000390709F061C0F0938603E0938503DF9159
:1016C000CF910895EA01CE17DF07E8F54A815B81E3
:1016D0009E0141155105B1F7E901FB83EA83499168
:1016E0005991C40FD51FEC17FD0761F480819181DA
:1016F0000296840F951FE9019983888382819381E3
:101700009B838A83F0E0E0E012968D919C91139781
:101710000097B9F52D913C911197CD010296820F5A
:10172000931F20918503309186032817390739F6D6
:10173000309751F51092880310928703B093860377
:10174000A0938503BCCFD383C28340815181840F92
:10175000951FC817D90761F44E5F5F4F8881998143
:10176000480F591F518340838A819B8193838283D1
:101770002115310509F0B0CFF0938803E09387037A
:101780009ECFFD01DC01C0CF13821282D7CFB0E023
:10179000A0E0EDECFBE00C94450A8C01009751F4BD
:1017A000CB010E94A20A8C01C801CDB7DEB7E0E1EF
:1017B0000C94610AFC01E60FF71F9C0122503109CD
:1017C000E217F30708F49DC0D901CD91DC91119780
:1017D000C617D70798F0C530D10530F3CE0104976E
:1017E0008617970708F3C61BD70B2297C193D1938F
:1017F0006D937C93CF010E943E0BD6CF5B01AC1A58
:10180000BD0A4C018C0E9D1EA0918703B0918803E8
:10181000512C412CF12CE12C109731F5809185034E
:10182000909186038815990509F05CC04616570605
:1018300008F058C08091000190910101009741F497
:101840008DB79EB74091040150910501841B950B03
:10185000E817F90708F055C0F0938603E093850375
:10186000F90171836083A0CF8D919C91119712969D
:101870006C90129713967C901397A815B90559F59B
:101880006C0142E0C40ED11CCA14DB0420F1AC018F
:101890004A195B09DA011296159780F06282738209
:1018A00051834083D9016D937C93E114F10471F06D
:1018B000D7011396FC93EE93129776CF22968C0F56
:1018C0009D1FF90191838083F301EFCFF09388038B
:1018D000E093870369CF4816590608F42C017D016F
:1018E000D3019ACFCB010E94A20A7C01009749F054
:1018F000AE01B8010E94840CC8010E943E0B870112
:1019000053CF10E000E050CFFB01DC0102C001909A
:101910000D9241505040D8F70895FB01DC01019031
:0C1920000D920020E1F70895F894FFCF2D
:10192C000000890380000000000024018400B10045
:10193C007101E200C000D40000000000E203B50316
:10194C0011048B03AE039B038C030D0A0045636FDC
:10195C006C207365740045726F7720736574004456
:10196C00636F6C20736574007261775B005D5B0064
:08197C005D2069733A200000B0
:00000001FF
